{
    "contractName": "HelloWorld",
    "abi": [
        {
            "anonymous": false,
            "inputs": [
                {
                    "indexed": false,
                    "internalType": "string",
                    "name": "a",
                    "type": "string"
                }
            ],
            "name": "log",
            "type": "event"
        },
        {
            "inputs": [],
            "name": "consoleLog",
            "outputs": [
                {
                    "internalType": "bool",
                    "name": "",
                    "type": "bool"
                }
            ],
            "stateMutability": "nonpayable",
            "type": "function"
        },
        {
            "inputs": [],
            "name": "greet",
            "outputs": [
                {
                    "internalType": "string",
                    "name": "",
                    "type": "string"
                }
            ],
            "stateMutability": "view",
            "type": "function"
        }
    ],
    "bytecode": "60c0604052600c60809081526b48656c6c6f20576f726c642160a01b60a0525f9061002a90826100d4565b50348015610036575f80fd5b5061018e565b634e487b7160e01b5f52604160045260245ffd5b600181811c9082168061006457607f821691505b60208210810361008257634e487b7160e01b5f52602260045260245ffd5b50919050565b601f8211156100cf57805f5260205f20601f840160051c810160208510156100ad5750805b601f840160051c820191505b818110156100cc575f81556001016100b9565b50505b505050565b81516001600160401b038111156100ed576100ed61003c565b610101816100fb8454610050565b84610088565b6020601f821160018114610133575f831561011c5750848201515b5f19600385901b1c1916600184901b1784556100cc565b5f84815260208120601f198516915b828110156101625787850151825560209485019460019092019101610142565b508482101561017f57868401515f19600387901b60f8161c191681555b50505050600190811b01905550565b6101ec8061019b5f395ff3fe608060405234801561000f575f80fd5b5060043610610034575f3560e01c8063ca6e790614610038578063cfae321714610055575b5f80fd5b61004061006a565b60405190151581526020015b60405180910390f35b61005d6100be565b60405161004c9190610149565b5f7f41304facd9323d75b11bcdd609cb38effffdb05710f7caf0e9b16c6d9d709f506040516100b09060208082526003908201526233333360e81b604082015260600190565b60405180910390a150600190565b5f80546100ca9061017e565b80601f01602080910402602001604051908101604052809291908181526020018280546100f69061017e565b80156101415780601f1061011857610100808354040283529160200191610141565b820191905f5260205f20905b81548152906001019060200180831161012457829003601f168201915b505050505081565b602081525f82518060208401528060208501604085015e5f604082850101526040601f19601f83011684010191505092915050565b600181811c9082168061019257607f821691505b6020821081036101b057634e487b7160e01b5f52602260045260245ffd5b5091905056fea26469706673582212201c537c45e654209c1be8cf15d2390ad69841673eaa0830d0a451d3ae2f626cf764736f6c634300081a0033",
    "sourcePath": "/Users/lixueyang/Desktop/solidity-case/contract/hellowWorld.sol",
    "compiler": {
        "name": "solc",
        "version": "0.8.26+commit.8a97fa7a"
    },
    "functionHashes": {
        "consoleLog()": "ca6e7906",
        "greet()": "cfae3217"
    },
    "gasEstimates": {
        "creation": {
            "codeDepositCost": "98400",
            "executionCost": "infinite",
            "totalCost": "infinite"
        },
        "external": {
            "consoleLog()": "1806",
            "greet()": "infinite"
        }
    }
}