{
	"data": {
		"bytecode": {
			"linkReferences": {},
			"object": "6080604052348015600e575f80fd5b50606a80601a5f395ff3fe6080604052348015600e575f80fd5b50600436106026575f3560e01c8063c040622614602a575b5f80fd5b60306032565b005b56fea2646970667358221220bcfe91f92a9840df451c3ca07569141d144f71f737c7370b40037331a930e9af64736f6c634300081a0033",
			"opcodes": "PUSH1 0x80 PUSH1 0x40 MSTORE CALLVALUE DUP1 ISZERO PUSH1 0xE JUMPI PUSH0 DUP1 REVERT JUMPDEST POP PUSH1 0x6A DUP1 PUSH1 0x1A PUSH0 CODECOPY PUSH0 RETURN INVALID PUSH1 0x80 PUSH1 0x40 MSTORE CALLVALUE DUP1 ISZERO PUSH1 0xE JUMPI PUSH0 DUP1 REVERT JUMPDEST POP PUSH1 0x4 CALLDATASIZE LT PUSH1 0x26 JUMPI PUSH0 CALLDATALOAD PUSH1 0xE0 SHR DUP1 PUSH4 0xC0406226 EQ PUSH1 0x2A JUMPI JUMPDEST PUSH0 DUP1 REVERT JUMPDEST PUSH1 0x30 PUSH1 0x32 JUMP JUMPDEST STOP JUMPDEST JUMP INVALID LOG2 PUSH5 0x6970667358 0x22 SLT KECCAK256 0xBC INVALID SWAP2 0xF9 0x2A SWAP9 BLOCKHASH 0xDF GASLIMIT SHR EXTCODECOPY LOG0 PUSH22 0x69141D144F71F737C7370B40037331A930E9AF64736F PUSH13 0x634300081A0033000000000000 "
		},
		"gasEstimates": {
			"creation": {
				"codeDepositCost": "21200",
				"executionCost": "73",
				"totalCost": "21273"
			},
			"external": {
				"run()": "121"
			}
		},
		"methodIdentifiers": {
			"run()": "c0406226"
		}
	},
	"abi": [
		{
			"inputs": [],
			"name": "run",
			"outputs": [],
			"stateMutability": "nonpayable",
			"type": "function"
		}
	]
}