{
	"data": {
		"bytecode": {
			"linkReferences": {},
			"object": "6080604052348015600e575f80fd5b506102658061001c5f395ff3fe608060405234801561000f575f80fd5b5060043610610055575f3560e01c80631f2a63c01461005957806324b8ba5f146100635780636d4ce63c1461007f57806382482f7c1461009d578063d826f88f146100bb575b5f80fd5b6100616100c5565b005b61007d60048036038101906100789190610178565b6100f0565b005b61008761011b565b6040516100949190610216565b60405180910390f35b6100a561012f565b6040516100b29190610216565b60405180910390f35b6100c361013f565b005b60035f806101000a81548160ff021916908360038111156100e9576100e86101a3565b5b0217905550565b805f806101000a81548160ff02191690836003811115610113576101126101a3565b5b021790555050565b5f805f9054906101000a900460ff16905090565b5f8054906101000a900460ff1681565b5f806101000a81549060ff0219169055565b5f80fd5b60048110610161575f80fd5b50565b5f8135905061017281610155565b92915050565b5f6020828403121561018d5761018c610151565b5b5f61019a84828501610164565b91505092915050565b7f4e487b71000000000000000000000000000000000000000000000000000000005f52602160045260245ffd5b600481106101e1576101e06101a3565b5b50565b5f8190506101f1826101d0565b919050565b5f610200826101e4565b9050919050565b610210816101f6565b82525050565b5f6020820190506102295f830184610207565b9291505056fea264697066735822122034b3b138ca420f26d0b4fe9bff399edcf470cd0d06fe329b0282ba8ee352a84064736f6c634300081a0033",
			"opcodes": "PUSH1 0x80 PUSH1 0x40 MSTORE CALLVALUE DUP1 ISZERO PUSH1 0xE JUMPI PUSH0 DUP1 REVERT JUMPDEST POP PUSH2 0x265 DUP1 PUSH2 0x1C PUSH0 CODECOPY PUSH0 RETURN INVALID PUSH1 0x80 PUSH1 0x40 MSTORE CALLVALUE DUP1 ISZERO PUSH2 0xF JUMPI PUSH0 DUP1 REVERT JUMPDEST POP PUSH1 0x4 CALLDATASIZE LT PUSH2 0x55 JUMPI PUSH0 CALLDATALOAD PUSH1 0xE0 SHR DUP1 PUSH4 0x1F2A63C0 EQ PUSH2 0x59 JUMPI DUP1 PUSH4 0x24B8BA5F EQ PUSH2 0x63 JUMPI DUP1 PUSH4 0x6D4CE63C EQ PUSH2 0x7F JUMPI DUP1 PUSH4 0x82482F7C EQ PUSH2 0x9D JUMPI DUP1 PUSH4 0xD826F88F EQ PUSH2 0xBB JUMPI JUMPDEST PUSH0 DUP1 REVERT JUMPDEST PUSH2 0x61 PUSH2 0xC5 JUMP JUMPDEST STOP JUMPDEST PUSH2 0x7D PUSH1 0x4 DUP1 CALLDATASIZE SUB DUP2 ADD SWAP1 PUSH2 0x78 SWAP2 SWAP1 PUSH2 0x178 JUMP JUMPDEST PUSH2 0xF0 JUMP JUMPDEST STOP JUMPDEST PUSH2 0x87 PUSH2 0x11B JUMP JUMPDEST PUSH1 0x40 MLOAD PUSH2 0x94 SWAP2 SWAP1 PUSH2 0x216 JUMP JUMPDEST PUSH1 0x40 MLOAD DUP1 SWAP2 SUB SWAP1 RETURN JUMPDEST PUSH2 0xA5 PUSH2 0x12F JUMP JUMPDEST PUSH1 0x40 MLOAD PUSH2 0xB2 SWAP2 SWAP1 PUSH2 0x216 JUMP JUMPDEST PUSH1 0x40 MLOAD DUP1 SWAP2 SUB SWAP1 RETURN JUMPDEST PUSH2 0xC3 PUSH2 0x13F JUMP JUMPDEST STOP JUMPDEST PUSH1 0x3 PUSH0 DUP1 PUSH2 0x100 EXP DUP2 SLOAD DUP2 PUSH1 0xFF MUL NOT AND SWAP1 DUP4 PUSH1 0x3 DUP2 GT ISZERO PUSH2 0xE9 JUMPI PUSH2 0xE8 PUSH2 0x1A3 JUMP JUMPDEST JUMPDEST MUL OR SWAP1 SSTORE POP JUMP JUMPDEST DUP1 PUSH0 DUP1 PUSH2 0x100 EXP DUP2 SLOAD DUP2 PUSH1 0xFF MUL NOT AND SWAP1 DUP4 PUSH1 0x3 DUP2 GT ISZERO PUSH2 0x113 JUMPI PUSH2 0x112 PUSH2 0x1A3 JUMP JUMPDEST JUMPDEST MUL OR SWAP1 SSTORE POP POP JUMP JUMPDEST PUSH0 DUP1 PUSH0 SWAP1 SLOAD SWAP1 PUSH2 0x100 EXP SWAP1 DIV PUSH1 0xFF AND SWAP1 POP SWAP1 JUMP JUMPDEST PUSH0 DUP1 SLOAD SWAP1 PUSH2 0x100 EXP SWAP1 DIV PUSH1 0xFF AND DUP2 JUMP JUMPDEST PUSH0 DUP1 PUSH2 0x100 EXP DUP2 SLOAD SWAP1 PUSH1 0xFF MUL NOT AND SWAP1 SSTORE JUMP JUMPDEST PUSH0 DUP1 REVERT JUMPDEST PUSH1 0x4 DUP2 LT PUSH2 0x161 JUMPI PUSH0 DUP1 REVERT JUMPDEST POP JUMP JUMPDEST PUSH0 DUP2 CALLDATALOAD SWAP1 POP PUSH2 0x172 DUP2 PUSH2 0x155 JUMP JUMPDEST SWAP3 SWAP2 POP POP JUMP JUMPDEST PUSH0 PUSH1 0x20 DUP3 DUP5 SUB SLT ISZERO PUSH2 0x18D JUMPI PUSH2 0x18C PUSH2 0x151 JUMP JUMPDEST JUMPDEST PUSH0 PUSH2 0x19A DUP5 DUP3 DUP6 ADD PUSH2 0x164 JUMP JUMPDEST SWAP2 POP POP SWAP3 SWAP2 POP POP JUMP JUMPDEST PUSH32 0x4E487B7100000000000000000000000000000000000000000000000000000000 PUSH0 MSTORE PUSH1 0x21 PUSH1 0x4 MSTORE PUSH1 0x24 PUSH0 REVERT JUMPDEST PUSH1 0x4 DUP2 LT PUSH2 0x1E1 JUMPI PUSH2 0x1E0 PUSH2 0x1A3 JUMP JUMPDEST JUMPDEST POP JUMP JUMPDEST PUSH0 DUP2 SWAP1 POP PUSH2 0x1F1 DUP3 PUSH2 0x1D0 JUMP JUMPDEST SWAP2 SWAP1 POP JUMP JUMPDEST PUSH0 PUSH2 0x200 DUP3 PUSH2 0x1E4 JUMP JUMPDEST SWAP1 POP SWAP2 SWAP1 POP JUMP JUMPDEST PUSH2 0x210 DUP2 PUSH2 0x1F6 JUMP JUMPDEST DUP3 MSTORE POP POP JUMP JUMPDEST PUSH0 PUSH1 0x20 DUP3 ADD SWAP1 POP PUSH2 0x229 PUSH0 DUP4 ADD DUP5 PUSH2 0x207 JUMP JUMPDEST SWAP3 SWAP2 POP POP JUMP INVALID LOG2 PUSH5 0x6970667358 0x22 SLT KECCAK256 CALLVALUE 0xB3 0xB1 CODESIZE 0xCA TIMESTAMP 0xF 0x26 0xD0 0xB4 INVALID SWAP12 SELFDESTRUCT CODECOPY SWAP15 0xDC DELEGATECALL PUSH17 0xCD0D06FE329B0282BA8EE352A84064736F PUSH13 0x634300081A0033000000000000 "
		},
		"gasEstimates": {
			"creation": {
				"codeDepositCost": "122600",
				"executionCost": "169",
				"totalCost": "122769"
			},
			"external": {
				"get()": "2583",
				"reset()": "24450",
				"right()": "24407",
				"set(uint8)": "24645",
				"states()": "2595"
			}
		},
		"methodIdentifiers": {
			"get()": "6d4ce63c",
			"reset()": "d826f88f",
			"right()": "1f2a63c0",
			"set(uint8)": "24b8ba5f",
			"states()": "82482f7c"
		}
	},
	"abi": [
		{
			"inputs": [],
			"name": "get",
			"outputs": [
				{
					"internalType": "enum Enum.States",
					"name": "",
					"type": "uint8"
				}
			],
			"stateMutability": "view",
			"type": "function"
		},
		{
			"inputs": [],
			"name": "reset",
			"outputs": [],
			"stateMutability": "nonpayable",
			"type": "function"
		},
		{
			"inputs": [],
			"name": "right",
			"outputs": [],
			"stateMutability": "nonpayable",
			"type": "function"
		},
		{
			"inputs": [
				{
					"internalType": "enum Enum.States",
					"name": "_states",
					"type": "uint8"
				}
			],
			"name": "set",
			"outputs": [],
			"stateMutability": "nonpayable",
			"type": "function"
		},
		{
			"inputs": [],
			"name": "states",
			"outputs": [
				{
					"internalType": "enum Enum.States",
					"name": "",
					"type": "uint8"
				}
			],
			"stateMutability": "view",
			"type": "function"
		}
	]
}